{
  "contractName": "Ballot",
  "abi": [
    {
      "inputs": [
        {
          "name": "numProposals",
          "type": "uint256"
        }
      ],
      "payable": false,
      "stateMutability": "nonpayable",
      "type": "constructor"
    },
    {
      "constant": false,
      "inputs": [
        {
          "name": "voter",
          "type": "address"
        }
      ],
      "name": "register",
      "outputs": [],
      "payable": false,
      "stateMutability": "nonpayable",
      "type": "function"
    },
    {
      "constant": false,
      "inputs": [
        {
          "name": "toProposal",
          "type": "uint256"
        }
      ],
      "name": "vote",
      "outputs": [],
      "payable": false,
      "stateMutability": "nonpayable",
      "type": "function"
    },
    {
      "constant": true,
      "inputs": [],
      "name": "reqWinner",
      "outputs": [
        {
          "name": "winningProposal",
          "type": "uint256"
        }
      ],
      "payable": false,
      "stateMutability": "view",
      "type": "function"
    }
  ],
  "bytecode": "0x608060405234801561001057600080fd5b506040516020806105c9833981018060405281019080805190602001909291905050506000336000806101000a81548173ffffffffffffffffffffffffffffffffffffffff021916908373ffffffffffffffffffffffffffffffffffffffff1602179055506002600160008060009054906101000a900473ffffffffffffffffffffffffffffffffffffffff1673ffffffffffffffffffffffffffffffffffffffff1673ffffffffffffffffffffffffffffffffffffffff16815260200190815260200160002060000181905550600090505b818160ff16101561014257600260206040519081016040528060008152509080600181540180825580915050906001820390600052602060002001600090919290919091506000820151816000015550505080806001019150506100e3565b5050610476806101536000396000f300608060405260043610610057576000357c0100000000000000000000000000000000000000000000000000000000900463ffffffff1680630121b93f1461005c5780634420e48614610089578063508b30c9146100cc575b600080fd5b34801561006857600080fd5b50610087600480360381019080803590602001909291905050506100f7565b005b34801561009557600080fd5b506100ca600480360381019080803573ffffffffffffffffffffffffffffffffffffffff1690602001909291905050506102a6565b005b3480156100d857600080fd5b506100e16103a6565b6040518082815260200191505060405180910390f35b6100ff610426565b6000600160003373ffffffffffffffffffffffffffffffffffffffff1673ffffffffffffffffffffffffffffffffffffffff168152602001908152602001600020600001541115156101b9576040517f08c379a00000000000000000000000000000000000000000000000000000000081526004018080602001828103825260168152602001807f4e6f742061205265676973746572656420566f7465720000000000000000000081525060200191505060405180910390fd5b600160003373ffffffffffffffffffffffffffffffffffffffff1673ffffffffffffffffffffffffffffffffffffffff16815260200190815260200160002060606040519081016040529081600082015481526020016001820160009054906101000a900460ff161515151581526020016002820154815250509050806020015115151561024657600080fd5b6002805490508210151561025957600080fd5b600181602001901515908115158152505081816040018181525050806000015160028381548110151561028857fe5b90600052602060002001600001600082825401925050819055505050565b6000809054906101000a900473ffffffffffffffffffffffffffffffffffffffff1673ffffffffffffffffffffffffffffffffffffffff163373ffffffffffffffffffffffffffffffffffffffff1614151561030157600080fd5b60018060008373ffffffffffffffffffffffffffffffffffffffff1673ffffffffffffffffffffffffffffffffffffffff168152602001908152602001600020600001819055506000600160008373ffffffffffffffffffffffffffffffffffffffff1673ffffffffffffffffffffffffffffffffffffffff16815260200190815260200160002060010160006101000a81548160ff02191690831515021790555050565b6000806000809150600090505b60028054905081101561041457816002828154811015156103d057fe5b90600052602060002001600001541115610407576002818154811015156103f357fe5b906000526020600020016000015491508092505b80806001019150506103b3565b6003821015151561042157fe5b505090565b606060405190810160405280600081526020016000151581526020016000815250905600a165627a7a7230582009fddd9bf2b0cae58adcbfc4a2a05b68f23c9bd6f450853daa6ef31e93ec465a0029",
  "source": "pragma solidity >=0.4.22 <=0.6.0;\ncontract Ballot {\n\n    struct Voter {                     \n        uint weight;\n        bool voted;\n        uint vote;\n    }\n    struct Proposal {                  \n        uint voteCount;\n    }\n\n    address chairperson;\n    mapping(address => Voter) voters;  \n    Proposal[] proposals;\n    \n    modifier onlyChair() {\n\trequire(msg.sender == chairperson);\n      \t_;\n    }\n     \n    modifier validVoter() {\n        require(voters[msg.sender].weight > 0, \"Not a Registered Voter\");\n        _;\n    }\n\n    constructor (uint numProposals) public  {\n        chairperson = msg.sender;\n        voters[chairperson].weight = 2;\n        for (uint8 prop = 0; prop < numProposals; prop ++)\n            proposals.push(Proposal(0));\n    }\n    \n     \n    function register(address voter) public onlyChair {\n        voters[voter].weight = 1;\n        voters[voter].voted = false;\n    }\n\n   \n    function vote(uint toProposal) public validVoter {\n        Voter memory sender = voters[msg.sender];\n        \n        require (!sender.voted); \n        require (toProposal < proposals.length); \n        \n        sender.voted = true;\n        sender.vote = toProposal;   \n        proposals[toProposal].voteCount += sender.weight;\n    }\n\n    function reqWinner() public view returns (uint winningProposal) {\n        uint winningVoteCount = 0;\n        for (uint prop = 0; prop < proposals.length; prop++) \n            if (proposals[prop].voteCount > winningVoteCount) {\n                winningVoteCount = proposals[prop].voteCount;\n                winningProposal = prop;\n            }\n       assert(winningVoteCount>=3);\n    }\n}\n",
  "sourcePath": "/Users/sonchaegeon/Desktop/Github/blockchain-in-action/Ballot-Dapp/ballot-contract/contracts/Ballot.sol",
  "compiler": {
    "name": "solc",
    "version": "0.4.25+commit.59dbf8f1.Emscripten.clang"
  },
  "schemaVersion": "2.0.2",
  "updatedAt": "2021-10-17T03:06:43.144Z"
}